{
  "contractName": "Exercice2",
  "abi": [
    {
      "inputs": [
        {
          "internalType": "uint256",
          "name": "montantEther",
          "type": "uint256"
        }
      ],
      "name": "etherEnWei",
      "outputs": [
        {
          "internalType": "uint256",
          "name": "",
          "type": "uint256"
        }
      ],
      "stateMutability": "pure",
      "type": "function",
      "constant": true
    },
    {
      "inputs": [
        {
          "internalType": "uint256",
          "name": "montantWei",
          "type": "uint256"
        }
      ],
      "name": "weiEnEther",
      "outputs": [
        {
          "internalType": "uint256",
          "name": "",
          "type": "uint256"
        }
      ],
      "stateMutability": "pure",
      "type": "function",
      "constant": true
    }
  ],
  "bytecode": "0x608060405234801561001057600080fd5b5061026e806100206000396000f3fe608060405234801561001057600080fd5b50600436106100365760003560e01c806318b5d6e51461003b578063b5fcda341461006b575b600080fd5b61005560048036038101906100509190610110565b61009b565b604051610062919061014c565b60405180910390f35b61008560048036038101906100809190610110565b6100b8565b604051610092919061014c565b60405180910390f35b6000670de0b6b3a7640000826100b191906101c5565b9050919050565b6000670de0b6b3a7640000826100ce91906101f6565b9050919050565b600080fd5b6000819050919050565b6100ed816100da565b81146100f857600080fd5b50565b60008135905061010a816100e4565b92915050565b600060208284031215610126576101256100d5565b5b6000610134848285016100fb565b91505092915050565b610146816100da565b82525050565b6000602082019050610161600083018461013d565b92915050565b7f4e487b7100000000000000000000000000000000000000000000000000000000600052601260045260246000fd5b7f4e487b7100000000000000000000000000000000000000000000000000000000600052601160045260246000fd5b60006101d0826100da565b91506101db836100da565b9250826101eb576101ea610167565b5b828204905092915050565b6000610201826100da565b915061020c836100da565b925082820261021a816100da565b9150828204841483151761023157610230610196565b5b509291505056fea2646970667358221220e0ea218eb672d70f2560f3122496f8b7bebd514aff8bd8c0c1aac7354144467064736f6c63430008150033",
  "immutableReferences": {},
  "source": "// SPDX-License-Identifier: MIT\r\npragma solidity ^0.8.0;\r\n\r\ncontract Exercice2 {\r\n    function etherEnWei(uint montantEther) public pure returns (uint) {\r\n        return montantEther * 1 ether;\r\n    }\r\n\r\n    function weiEnEther(uint montantWei) public pure returns (uint) {\r\n        return montantWei / 1 ether;\r\n    }\r\n}\r\n",
  "sourcePath": "C:\\Users\\hp\\dapp-tp3\\contracts\\Exercice2.sol",
  "compiler": {
    "name": "solc",
    "version": "0.8.21+commit.d9974bed.Emscripten.clang"
  },
  "schemaVersion": "3.4.16",
  "updatedAt": "2025-07-27T15:58:50.150Z",
  "networkType": "ethereum",
  "devdoc": {
    "kind": "dev",
    "methods": {},
    "version": 1
  },
  "userdoc": {
    "kind": "user",
    "methods": {},
    "version": 1
  }
}