{
  "contractName": "GestionChaines",
  "abi": [
    {
      "inputs": [],
      "name": "message",
      "outputs": [
        {
          "internalType": "string",
          "name": "",
          "type": "string"
        }
      ],
      "stateMutability": "view",
      "type": "function",
      "constant": true
    },
    {
      "inputs": [
        {
          "internalType": "string",
          "name": "_msg",
          "type": "string"
        }
      ],
      "name": "setMessage",
      "outputs": [],
      "stateMutability": "nonpayable",
      "type": "function"
    },
    {
      "inputs": [],
      "name": "getMessage",
      "outputs": [
        {
          "internalType": "string",
          "name": "",
          "type": "string"
        }
      ],
      "stateMutability": "view",
      "type": "function",
      "constant": true
    },
    {
      "inputs": [
        {
          "internalType": "string",
          "name": "a",
          "type": "string"
        },
        {
          "internalType": "string",
          "name": "b",
          "type": "string"
        }
      ],
      "name": "concatener",
      "outputs": [
        {
          "internalType": "string",
          "name": "",
          "type": "string"
        }
      ],
      "stateMutability": "pure",
      "type": "function",
      "constant": true
    },
    {
      "inputs": [
        {
          "internalType": "string",
          "name": "autre",
          "type": "string"
        }
      ],
      "name": "concatenerAvec",
      "outputs": [
        {
          "internalType": "string",
          "name": "",
          "type": "string"
        }
      ],
      "stateMutability": "view",
      "type": "function",
      "constant": true
    },
    {
      "inputs": [
        {
          "internalType": "string",
          "name": "s",
          "type": "string"
        }
      ],
      "name": "longueur",
      "outputs": [
        {
          "internalType": "uint256",
          "name": "",
          "type": "uint256"
        }
      ],
      "stateMutability": "pure",
      "type": "function",
      "constant": true
    },
    {
      "inputs": [
        {
          "internalType": "string",
          "name": "a",
          "type": "string"
        },
        {
          "internalType": "string",
          "name": "b",
          "type": "string"
        }
      ],
      "name": "comparer",
      "outputs": [
        {
          "internalType": "bool",
          "name": "",
          "type": "bool"
        }
      ],
      "stateMutability": "pure",
      "type": "function",
      "constant": true
    }
  ],
  "bytecode": "0x608060405234801561001057600080fd5b50610a8c806100206000396000f3fe608060405234801561001057600080fd5b506004361061007d5760003560e01c80634f7596871161005b5780634f759687146100fe5780639103ca331461012e578063ce6d41de1461015e578063e21f37ce1461017c5761007d565b806317646f8914610082578063368b8772146100b2578063413d4384146100ce575b600080fd5b61009c600480360381019061009791906104a5565b61019a565b6040516100a99190610538565b60405180910390f35b6100cc60048036038101906100c79190610553565b6101b5565b005b6100e860048036038101906100e39190610553565b6101c8565b6040516100f5919061061b565b60405180910390f35b61011860048036038101906101139190610553565b6101f4565b6040516101259190610656565b60405180910390f35b610148600480360381019061014391906104a5565b6101ff565b604051610155919061061b565b60405180910390f35b61016661022b565b604051610173919061061b565b60405180910390f35b6101846102bd565b604051610191919061061b565b60405180910390f35b60008180519060200120838051906020012014905092915050565b80600090816101c4919061087d565b5050565b60606000826040516020016101de929190610a0e565b6040516020818303038152906040529050919050565b600081519050919050565b60608282604051602001610214929190610a32565b604051602081830303815290604052905092915050565b60606000805461023a906106a0565b80601f0160208091040260200160405190810160405280929190818152602001828054610266906106a0565b80156102b35780601f10610288576101008083540402835291602001916102b3565b820191906000526020600020905b81548152906001019060200180831161029657829003601f168201915b5050505050905090565b600080546102ca906106a0565b80601f01602080910402602001604051908101604052809291908181526020018280546102f6906106a0565b80156103435780601f1061031857610100808354040283529160200191610343565b820191906000526020600020905b81548152906001019060200180831161032657829003601f168201915b505050505081565b6000604051905090565b600080fd5b600080fd5b600080fd5b600080fd5b6000601f19601f8301169050919050565b7f4e487b7100000000000000000000000000000000000000000000000000000000600052604160045260246000fd5b6103b282610369565b810181811067ffffffffffffffff821117156103d1576103d061037a565b5b80604052505050565b60006103e461034b565b90506103f082826103a9565b919050565b600067ffffffffffffffff8211156104105761040f61037a565b5b61041982610369565b9050602081019050919050565b82818337600083830152505050565b6000610448610443846103f5565b6103da565b90508281526020810184848401111561046457610463610364565b5b61046f848285610426565b509392505050565b600082601f83011261048c5761048b61035f565b5b813561049c848260208601610435565b91505092915050565b600080604083850312156104bc576104bb610355565b5b600083013567ffffffffffffffff8111156104da576104d961035a565b5b6104e685828601610477565b925050602083013567ffffffffffffffff8111156105075761050661035a565b5b61051385828601610477565b9150509250929050565b60008115159050919050565b6105328161051d565b82525050565b600060208201905061054d6000830184610529565b92915050565b60006020828403121561056957610568610355565b5b600082013567ffffffffffffffff8111156105875761058661035a565b5b61059384828501610477565b91505092915050565b600081519050919050565b600082825260208201905092915050565b60005b838110156105d65780820151818401526020810190506105bb565b60008484015250505050565b60006105ed8261059c565b6105f781856105a7565b93506106078185602086016105b8565b61061081610369565b840191505092915050565b6000602082019050818103600083015261063581846105e2565b905092915050565b6000819050919050565b6106508161063d565b82525050565b600060208201905061066b6000830184610647565b92915050565b7f4e487b7100000000000000000000000000000000000000000000000000000000600052602260045260246000fd5b600060028204905060018216806106b857607f821691505b6020821081036106cb576106ca610671565b5b50919050565b60008190508160005260206000209050919050565b60006020601f8301049050919050565b600082821b905092915050565b6000600883026107337fffffffffffffffffffffffffffffffffffffffffffffffffffffffffffffffff826106f6565b61073d86836106f6565b95508019841693508086168417925050509392505050565b6000819050919050565b600061077a6107756107708461063d565b610755565b61063d565b9050919050565b6000819050919050565b6107948361075f565b6107a86107a082610781565b848454610703565b825550505050565b600090565b6107bd6107b0565b6107c881848461078b565b505050565b5b818110156107ec576107e16000826107b5565b6001810190506107ce565b5050565b601f82111561083157610802816106d1565b61080b846106e6565b8101602085101561081a578190505b61082e610826856106e6565b8301826107cd565b50505b505050565b600082821c905092915050565b600061085460001984600802610836565b1980831691505092915050565b600061086d8383610843565b9150826002028217905092915050565b6108868261059c565b67ffffffffffffffff81111561089f5761089e61037a565b5b6108a982546106a0565b6108b48282856107f0565b600060209050601f8311600181146108e757600084156108d5578287015190505b6108df8582610861565b865550610947565b601f1984166108f5866106d1565b60005b8281101561091d578489015182556001820191506020850194506020810190506108f8565b8683101561093a5784890151610936601f891682610843565b8355505b6001600288020188555050505b505050505050565b600081905092915050565b60008154610967816106a0565b610971818661094f565b9450600182166000811461098c57600181146109a1576109d4565b60ff19831686528115158202860193506109d4565b6109aa856106d1565b60005b838110156109cc578154818901526001820191506020810190506109ad565b838801955050505b50505092915050565b60006109e88261059c565b6109f2818561094f565b9350610a028185602086016105b8565b80840191505092915050565b6000610a1a828561095a565b9150610a2682846109dd565b91508190509392505050565b6000610a3e82856109dd565b9150610a4a82846109dd565b9150819050939250505056fea26469706673582212209f4e60a841fe30b74fbf9301f6a48e2105a05a7898d58cc54cd3443ccddbea6764736f6c63430008150033",
  "immutableReferences": {},
  "source": "// SPDX-License-Identifier: MIT\r\npragma solidity ^0.8.0;\r\n\r\ncontract GestionChaines {\r\n    string public message;\r\n\r\n    function setMessage(string memory _msg) public {\r\n        message = _msg;\r\n    }\r\n\r\n    function getMessage() public view returns (string memory) {\r\n        return message;\r\n    }\r\n\r\n    function concatener(string memory a, string memory b) public pure returns (string memory) {\r\n        return string.concat(a, b);\r\n    }\r\n\r\n    function concatenerAvec(string memory autre) public view returns (string memory) {\r\n        return string.concat(message, autre);\r\n    }\r\n\r\n    function longueur(string memory s) public pure returns (uint) {\r\n        return bytes(s).length;\r\n    }\r\n\r\n    function comparer(string memory a, string memory b) public pure returns (bool) {\r\n        return keccak256(bytes(a)) == keccak256(bytes(b));\r\n    }\r\n}\r\n\r\n",
  "sourcePath": "C:\\Users\\hp\\dapp-tp3\\contracts\\Exercice3.sol",
  "compiler": {
    "name": "solc",
    "version": "0.8.21+commit.d9974bed.Emscripten.clang"
  },
  "schemaVersion": "3.4.16",
  "updatedAt": "2025-07-27T15:58:50.164Z",
  "networkType": "ethereum",
  "devdoc": {
    "kind": "dev",
    "methods": {},
    "version": 1
  },
  "userdoc": {
    "kind": "user",
    "methods": {},
    "version": 1
  }
}