{
  "contractName": "Payment",
  "abi": [
    {
      "inputs": [
        {
          "internalType": "address payable",
          "name": "_recipient",
          "type": "address"
        }
      ],
      "stateMutability": "nonpayable",
      "type": "constructor"
    },
    {
      "inputs": [],
      "name": "recipient",
      "outputs": [
        {
          "internalType": "address payable",
          "name": "",
          "type": "address"
        }
      ],
      "stateMutability": "view",
      "type": "function",
      "constant": true
    },
    {
      "inputs": [],
      "name": "receivePayment",
      "outputs": [],
      "stateMutability": "payable",
      "type": "function",
      "payable": true
    },
    {
      "inputs": [],
      "name": "withdraw",
      "outputs": [],
      "stateMutability": "nonpayable",
      "type": "function"
    }
  ],
  "bytecode": "0x608060405234801561001057600080fd5b5060405161049d38038061049d833981810160405281019061003291906100db565b806000806101000a81548173ffffffffffffffffffffffffffffffffffffffff021916908373ffffffffffffffffffffffffffffffffffffffff16021790555050610108565b600080fd5b600073ffffffffffffffffffffffffffffffffffffffff82169050919050565b60006100a88261007d565b9050919050565b6100b88161009d565b81146100c357600080fd5b50565b6000815190506100d5816100af565b92915050565b6000602082840312156100f1576100f0610078565b5b60006100ff848285016100c6565b91505092915050565b610386806101176000396000f3fe6080604052600436106100345760003560e01c80633ccfd60b1461003957806366d003ac14610050578063835c19f31461007b575b600080fd5b34801561004557600080fd5b5061004e610085565b005b34801561005c57600080fd5b5061006561017c565b6040516100729190610226565b60405180910390f35b6100836101a0565b005b60008054906101000a900473ffffffffffffffffffffffffffffffffffffffff1673ffffffffffffffffffffffffffffffffffffffff163373ffffffffffffffffffffffffffffffffffffffff1614610113576040517f08c379a000000000000000000000000000000000000000000000000000000000815260040161010a906102c4565b60405180910390fd5b60008054906101000a900473ffffffffffffffffffffffffffffffffffffffff1673ffffffffffffffffffffffffffffffffffffffff166108fc479081150290604051600060405180830381858888f19350505050158015610179573d6000803e3d6000fd5b50565b60008054906101000a900473ffffffffffffffffffffffffffffffffffffffff1681565b600034116101e3576040517f08c379a00000000000000000000000000000000000000000000000000000000081526004016101da90610330565b60405180910390fd5b565b600073ffffffffffffffffffffffffffffffffffffffff82169050919050565b6000610210826101e5565b9050919050565b61022081610205565b82525050565b600060208201905061023b6000830184610217565b92915050565b600082825260208201905092915050565b7f5365756c206c652064657374696e61746169726520706575742072657469726560008201527f7200000000000000000000000000000000000000000000000000000000000000602082015250565b60006102ae602183610241565b91506102b982610252565b604082019050919050565b600060208201905081810360008301526102dd816102a1565b9050919050565b7f456e766f79657220756e206d6f6e74616e742073757065726965757220612030600082015250565b600061031a602083610241565b9150610325826102e4565b602082019050919050565b600060208201905081810360008301526103498161030d565b905091905056fea26469706673582212202c626b6dcc724a5b7bff6c204d06ae35f7e73848a4c5b49e2c8f926de462389064736f6c63430008150033",
  "immutableReferences": {},
  "source": "// SPDX-License-Identifier: MIT\r\npragma solidity ^0.8.0;\r\n\r\ncontract Payment {\r\n    address payable public recipient;\r\n\r\n    constructor(address payable _recipient) {\r\n        recipient = _recipient;\r\n    }\r\n\r\n    function receivePayment() public payable {\r\n        require(msg.value > 0, \"Envoyer un montant superieur a 0\");\r\n    }\r\n\r\n    function withdraw() public {\r\n        require(msg.sender == recipient, \"Seul le destinataire peut retirer\");\r\n        payable(recipient).transfer(address(this).balance);\r\n    }\r\n}\r\n",
  "sourcePath": "C:\\Users\\hp\\dapp-tp3\\contracts\\Exercice8.sol",
  "compiler": {
    "name": "solc",
    "version": "0.8.21+commit.d9974bed.Emscripten.clang"
  },
  "schemaVersion": "3.4.16",
  "updatedAt": "2025-07-27T15:58:50.206Z",
  "networkType": "ethereum",
  "devdoc": {
    "kind": "dev",
    "methods": {},
    "version": 1
  },
  "userdoc": {
    "kind": "user",
    "methods": {},
    "version": 1
  }
}