{
  "contractName": "Exercice1",
  "abi": [
    {
      "inputs": [],
      "name": "nombre1",
      "outputs": [
        {
          "internalType": "uint256",
          "name": "",
          "type": "uint256"
        }
      ],
      "stateMutability": "view",
      "type": "function",
      "constant": true
    },
    {
      "inputs": [],
      "name": "nombre2",
      "outputs": [
        {
          "internalType": "uint256",
          "name": "",
          "type": "uint256"
        }
      ],
      "stateMutability": "view",
      "type": "function",
      "constant": true
    },
    {
      "inputs": [],
      "name": "addition1",
      "outputs": [
        {
          "internalType": "uint256",
          "name": "",
          "type": "uint256"
        }
      ],
      "stateMutability": "view",
      "type": "function",
      "constant": true
    },
    {
      "inputs": [
        {
          "internalType": "uint256",
          "name": "a",
          "type": "uint256"
        },
        {
          "internalType": "uint256",
          "name": "b",
          "type": "uint256"
        }
      ],
      "name": "addition2",
      "outputs": [
        {
          "internalType": "uint256",
          "name": "",
          "type": "uint256"
        }
      ],
      "stateMutability": "pure",
      "type": "function",
      "constant": true
    }
  ],
  "bytecode": "0x60806040526005600055600a60015534801561001a57600080fd5b506102528061002a6000396000f3fe608060405234801561001057600080fd5b506004361061004c5760003560e01c80634d3e46e41461005157806356620c8a1461006f5780637a5ba4041461008d578063f1d16438146100ab575b600080fd5b6100596100db565b604051610066919061012d565b60405180910390f35b6100776100f2565b604051610084919061012d565b60405180910390f35b6100956100f8565b6040516100a2919061012d565b60405180910390f35b6100c560048036038101906100c09190610179565b6100fe565b6040516100d2919061012d565b60405180910390f35b60006001546000546100ed91906101e8565b905090565b60015481565b60005481565b6000818361010c91906101e8565b905092915050565b6000819050919050565b61012781610114565b82525050565b6000602082019050610142600083018461011e565b92915050565b600080fd5b61015681610114565b811461016157600080fd5b50565b6000813590506101738161014d565b92915050565b600080604083850312156101905761018f610148565b5b600061019e85828601610164565b92505060206101af85828601610164565b9150509250929050565b7f4e487b7100000000000000000000000000000000000000000000000000000000600052601160045260246000fd5b60006101f382610114565b91506101fe83610114565b9250828201905080821115610216576102156101b9565b5b9291505056fea26469706673582212207123a7beef10d03a52b694662a2567a5d1185b53dbd31d55b43f4883b05c6e5864736f6c63430008150033",
  "immutableReferences": {},
  "source": "// SPDX-License-Identifier: MIT\r\npragma solidity ^0.8.21;\r\n\r\ncontract Exercice1 {\r\n    uint public nombre1 = 5;  // Initialisation directe\r\n    uint public nombre2 = 10; // Pas de constructeur\r\n\r\n    // Fonction view (lecture seule)\r\n    function addition1() public view returns (uint) {\r\n        return nombre1 + nombre2;\r\n    }\r\n\r\n    // Fonction pure (pas d'accs au storage)\r\n    function addition2(uint a, uint b) public pure returns (uint) {\r\n        return a + b;\r\n    }\r\n}\r\n",
  "sourcePath": "C:\\Users\\hp\\dapp-tp3\\contracts\\Exercice1.sol",
  "compiler": {
    "name": "solc",
    "version": "0.8.21+commit.d9974bed.Emscripten.clang"
  },
  "schemaVersion": "3.4.16",
  "updatedAt": "2025-07-27T15:58:50.142Z",
  "networkType": "ethereum",
  "devdoc": {
    "kind": "dev",
    "methods": {},
    "version": 1
  },
  "userdoc": {
    "kind": "user",
    "methods": {},
    "version": 1
  }
}